{
  "_format": "hh-sol-artifact-1",
  "contractName": "ResolverRegistry",
  "sourceName": "contracts/ResolverRegistry.sol",
  "abi": [
    {
      "inputs": [
        {
          "internalType": "contract IERC20",
          "name": "_stakeAsset",
          "type": "address"
        },
        {
          "internalType": "uint256",
          "name": "_minStake",
          "type": "uint256"
        },
        {
          "internalType": "address",
          "name": "_slashBeneficiary",
          "type": "address"
        },
        {
          "internalType": "address",
          "name": "_owner",
          "type": "address"
        }
      ],
      "stateMutability": "nonpayable",
      "type": "constructor"
    },
    {
      "inputs": [],
      "name": "AlreadyRegistered",
      "type": "error"
    },
    {
      "inputs": [],
      "name": "InvalidAddress",
      "type": "error"
    },
    {
      "inputs": [],
      "name": "InvalidAmount",
      "type": "error"
    },
    {
      "inputs": [],
      "name": "NotRegistered",
      "type": "error"
    },
    {
      "inputs": [
        {
          "internalType": "address",
          "name": "owner",
          "type": "address"
        }
      ],
      "name": "OwnableInvalidOwner",
      "type": "error"
    },
    {
      "inputs": [
        {
          "internalType": "address",
          "name": "account",
          "type": "address"
        }
      ],
      "name": "OwnableUnauthorizedAccount",
      "type": "error"
    },
    {
      "inputs": [],
      "name": "ReentrancyGuardReentrantCall",
      "type": "error"
    },
    {
      "inputs": [
        {
          "internalType": "address",
          "name": "token",
          "type": "address"
        }
      ],
      "name": "SafeERC20FailedOperation",
      "type": "error"
    },
    {
      "inputs": [],
      "name": "StakeBelowMinimum",
      "type": "error"
    },
    {
      "anonymous": false,
      "inputs": [
        {
          "indexed": false,
          "internalType": "uint256",
          "name": "oldMinStake",
          "type": "uint256"
        },
        {
          "indexed": false,
          "internalType": "uint256",
          "name": "newMinStake",
          "type": "uint256"
        }
      ],
      "name": "MinStakeUpdated",
      "type": "event"
    },
    {
      "anonymous": false,
      "inputs": [
        {
          "indexed": true,
          "internalType": "address",
          "name": "previousOwner",
          "type": "address"
        },
        {
          "indexed": true,
          "internalType": "address",
          "name": "newOwner",
          "type": "address"
        }
      ],
      "name": "OwnershipTransferStarted",
      "type": "event"
    },
    {
      "anonymous": false,
      "inputs": [
        {
          "indexed": true,
          "internalType": "address",
          "name": "previousOwner",
          "type": "address"
        },
        {
          "indexed": true,
          "internalType": "address",
          "name": "newOwner",
          "type": "address"
        }
      ],
      "name": "OwnershipTransferred",
      "type": "event"
    },
    {
      "anonymous": false,
      "inputs": [
        {
          "indexed": true,
          "internalType": "address",
          "name": "resolver",
          "type": "address"
        },
        {
          "indexed": false,
          "internalType": "uint256",
          "name": "stake",
          "type": "uint256"
        }
      ],
      "name": "Registered",
      "type": "event"
    },
    {
      "anonymous": false,
      "inputs": [
        {
          "indexed": false,
          "internalType": "address",
          "name": "oldBeneficiary",
          "type": "address"
        },
        {
          "indexed": false,
          "internalType": "address",
          "name": "newBeneficiary",
          "type": "address"
        }
      ],
      "name": "SlashBeneficiaryUpdated",
      "type": "event"
    },
    {
      "anonymous": false,
      "inputs": [
        {
          "indexed": true,
          "internalType": "address",
          "name": "resolver",
          "type": "address"
        },
        {
          "indexed": false,
          "internalType": "uint256",
          "name": "amount",
          "type": "uint256"
        },
        {
          "indexed": true,
          "internalType": "address",
          "name": "beneficiary",
          "type": "address"
        }
      ],
      "name": "Slashed",
      "type": "event"
    },
    {
      "anonymous": false,
      "inputs": [
        {
          "indexed": true,
          "internalType": "address",
          "name": "resolver",
          "type": "address"
        },
        {
          "indexed": false,
          "internalType": "uint256",
          "name": "added",
          "type": "uint256"
        },
        {
          "indexed": false,
          "internalType": "uint256",
          "name": "newTotal",
          "type": "uint256"
        }
      ],
      "name": "StakeIncreased",
      "type": "event"
    },
    {
      "anonymous": false,
      "inputs": [
        {
          "indexed": true,
          "internalType": "address",
          "name": "resolver",
          "type": "address"
        },
        {
          "indexed": false,
          "internalType": "uint256",
          "name": "stakeReturned",
          "type": "uint256"
        }
      ],
      "name": "Unregistered",
      "type": "event"
    },
    {
      "inputs": [],
      "name": "acceptOwnership",
      "outputs": [],
      "stateMutability": "nonpayable",
      "type": "function"
    },
    {
      "inputs": [
        {
          "internalType": "address",
          "name": "resolver",
          "type": "address"
        }
      ],
      "name": "get",
      "outputs": [
        {
          "components": [
            {
              "internalType": "address",
              "name": "resolver",
              "type": "address"
            },
            {
              "internalType": "uint256",
              "name": "stake",
              "type": "uint256"
            },
            {
              "internalType": "uint64",
              "name": "registeredAt",
              "type": "uint64"
            },
            {
              "internalType": "uint64",
              "name": "lastSlashAt",
              "type": "uint64"
            },
            {
              "internalType": "uint256",
              "name": "totalSlashed",
              "type": "uint256"
            },
            {
              "internalType": "bool",
              "name": "active",
              "type": "bool"
            }
          ],
          "internalType": "struct ResolverRegistry.ResolverInfo",
          "name": "",
          "type": "tuple"
        }
      ],
      "stateMutability": "view",
      "type": "function"
    },
    {
      "inputs": [],
      "name": "getActiveResolvers",
      "outputs": [
        {
          "components": [
            {
              "internalType": "address",
              "name": "resolver",
              "type": "address"
            },
            {
              "internalType": "uint256",
              "name": "stake",
              "type": "uint256"
            },
            {
              "internalType": "uint64",
              "name": "registeredAt",
              "type": "uint64"
            },
            {
              "internalType": "uint64",
              "name": "lastSlashAt",
              "type": "uint64"
            },
            {
              "internalType": "uint256",
              "name": "totalSlashed",
              "type": "uint256"
            },
            {
              "internalType": "bool",
              "name": "active",
              "type": "bool"
            }
          ],
          "internalType": "struct ResolverRegistry.ResolverInfo[]",
          "name": "",
          "type": "tuple[]"
        }
      ],
      "stateMutability": "view",
      "type": "function"
    },
    {
      "inputs": [
        {
          "internalType": "address[]",
          "name": "resolvers",
          "type": "address[]"
        }
      ],
      "name": "getBatchInfo",
      "outputs": [
        {
          "components": [
            {
              "internalType": "address",
              "name": "resolver",
              "type": "address"
            },
            {
              "internalType": "uint256",
              "name": "stake",
              "type": "uint256"
            },
            {
              "internalType": "uint64",
              "name": "registeredAt",
              "type": "uint64"
            },
            {
              "internalType": "uint64",
              "name": "lastSlashAt",
              "type": "uint64"
            },
            {
              "internalType": "uint256",
              "name": "totalSlashed",
              "type": "uint256"
            },
            {
              "internalType": "bool",
              "name": "active",
              "type": "bool"
            }
          ],
          "internalType": "struct ResolverRegistry.ResolverInfo[]",
          "name": "",
          "type": "tuple[]"
        }
      ],
      "stateMutability": "view",
      "type": "function"
    },
    {
      "inputs": [],
      "name": "getResolverCount",
      "outputs": [
        {
          "internalType": "uint256",
          "name": "",
          "type": "uint256"
        }
      ],
      "stateMutability": "view",
      "type": "function"
    },
    {
      "inputs": [
        {
          "internalType": "uint256",
          "name": "additional",
          "type": "uint256"
        }
      ],
      "name": "increaseStake",
      "outputs": [],
      "stateMutability": "nonpayable",
      "type": "function"
    },
    {
      "inputs": [
        {
          "internalType": "address",
          "name": "resolver",
          "type": "address"
        }
      ],
      "name": "isActive",
      "outputs": [
        {
          "internalType": "bool",
          "name": "",
          "type": "bool"
        }
      ],
      "stateMutability": "view",
      "type": "function"
    },
    {
      "inputs": [],
      "name": "list",
      "outputs": [
        {
          "internalType": "address[]",
          "name": "",
          "type": "address[]"
        }
      ],
      "stateMutability": "view",
      "type": "function"
    },
    {
      "inputs": [],
      "name": "listLength",
      "outputs": [
        {
          "internalType": "uint256",
          "name": "",
          "type": "uint256"
        }
      ],
      "stateMutability": "view",
      "type": "function"
    },
    {
      "inputs": [],
      "name": "minStake",
      "outputs": [
        {
          "internalType": "uint256",
          "name": "",
          "type": "uint256"
        }
      ],
      "stateMutability": "view",
      "type": "function"
    },
    {
      "inputs": [],
      "name": "owner",
      "outputs": [
        {
          "internalType": "address",
          "name": "",
          "type": "address"
        }
      ],
      "stateMutability": "view",
      "type": "function"
    },
    {
      "inputs": [],
      "name": "pendingOwner",
      "outputs": [
        {
          "internalType": "address",
          "name": "",
          "type": "address"
        }
      ],
      "stateMutability": "view",
      "type": "function"
    },
    {
      "inputs": [
        {
          "internalType": "uint256",
          "name": "stake",
          "type": "uint256"
        }
      ],
      "name": "register",
      "outputs": [],
      "stateMutability": "nonpayable",
      "type": "function"
    },
    {
      "inputs": [],
      "name": "renounceOwnership",
      "outputs": [],
      "stateMutability": "nonpayable",
      "type": "function"
    },
    {
      "inputs": [
        {
          "internalType": "uint256",
          "name": "newMinStake",
          "type": "uint256"
        }
      ],
      "name": "setMinStake",
      "outputs": [],
      "stateMutability": "nonpayable",
      "type": "function"
    },
    {
      "inputs": [
        {
          "internalType": "address",
          "name": "newBeneficiary",
          "type": "address"
        }
      ],
      "name": "setSlashBeneficiary",
      "outputs": [],
      "stateMutability": "nonpayable",
      "type": "function"
    },
    {
      "inputs": [
        {
          "internalType": "address",
          "name": "resolver",
          "type": "address"
        },
        {
          "internalType": "uint256",
          "name": "amount",
          "type": "uint256"
        }
      ],
      "name": "slash",
      "outputs": [],
      "stateMutability": "nonpayable",
      "type": "function"
    },
    {
      "inputs": [],
      "name": "slashBeneficiary",
      "outputs": [
        {
          "internalType": "address",
          "name": "",
          "type": "address"
        }
      ],
      "stateMutability": "view",
      "type": "function"
    },
    {
      "inputs": [],
      "name": "stakeAsset",
      "outputs": [
        {
          "internalType": "contract IERC20",
          "name": "",
          "type": "address"
        }
      ],
      "stateMutability": "view",
      "type": "function"
    },
    {
      "inputs": [
        {
          "internalType": "address",
          "name": "newOwner",
          "type": "address"
        }
      ],
      "name": "transferOwnership",
      "outputs": [],
      "stateMutability": "nonpayable",
      "type": "function"
    },
    {
      "inputs": [],
      "name": "unregister",
      "outputs": [],
      "stateMutability": "nonpayable",
      "type": "function"
    }
  ],
  "bytecode": "0x60a0346200018957601f6200149a38819003918201601f19168301916001600160401b038311848410176200018e57808492608094604052833981010312620001895780516001600160a01b038082169290918381036200018957602082015190836200007d60606200007560408701620001a4565b9501620001a4565b168015620001705760018060a01b03199586600154166001556000549180888416176000558660405193167f8be0079c531659141344cd1fd0a4f28419497f9722a3daafe3b4186f6b6457e0600080a360017f9b779b17422d0df92223018b32b4d1fa46e071723d6817e2486d003becc55f005515801562000165575b80156200015c575b6200014d5750608052600255169060035416176003556040516112e09081620001ba82396080518181816103400152818161047d015281816106480152818161093e0152610e050152f35b63e6c4247b60e01b8152600490fd5b50600062000102565b5084841615620000fa565b604051631e4fbdf760e01b815260006004820152602490fd5b600080fd5b634e487b7160e01b600052604160045260246000fd5b51906001600160a01b0382168203620001895756fe60406080815260048036101561001457600080fd5b600090813560e01c92836302fb4d8514610ce65783630f560cd714610c2257836311f03a4d14610b9a57836332978c2414610a71578363375b3c0a14610a52578363715018a6146109ed57836379ba50971461096d5783637c8894351461010b57836380cd916d146109295783638c80fd90146108d65783638da5cb5b146108ae5783639f8a13d7146108585783639fada4231461078a578363c2bc2efc1461073d578363e30c397814610714578363e79a198f146104f3578363eedad66b146103f5578363f0ef6c53146103cc578363f207564e1461017f5750508163f2fde38b14610110575063fb6f049f1461010b57600080fd5b610f26565b3461017c57602036600319011261017c57610129610e75565b610131611140565b600180546001600160a01b0319166001600160a01b0392831690811790915582549091167f38d16b8cac22d99fc7c124b9cd0de2d3fa1faef420bfe791d8c362d765e227008380a380f35b80fd5b8290346103c8576020806003193601126103c45783359161019e61116c565b60025483106103b55733845260068252808420546103a657805167ffffffffffffffff6101ca82610f67565b3382528684830186815284840192804216845261026b60608601948a865260808701928b845260a088019660018852338d52868b52898d209560018060a01b03809a51166bffffffffffffffffffffffff60a01b885416178755516001870155816002870193511667ffffffffffffffff19845416178355511667ffffffffffffffff60401b82549160401b169067ffffffffffffffff60401b1916179055565b516003820155019051151560ff8019835416911617905560055468010000000000000000811015610393576102a98160016102c79301600555610fbb565b81546001600160a01b0360039290921b91821b19163390911b179055565b6102e06005543387526006855280848820551515611123565b33855260068352818520546000198101908111610380577f6f3bf3fa84e4763a43b3d23f9d79be242d6d5c834941ff4c1111b67469e1150c93929161032761033892610fbb565b905460039190911b1c163314611123565b6103648430337f000000000000000000000000000000000000000000000000000000000000000061121d565b519283523392a2600160008051602061128b8339815191525580f35b634e487b7160e01b865260118752602486fd5b634e487b7160e01b865260418752602486fd5b51630ea075bf60e21b81528490fd5b5163de588d7360e01b81528490fd5b8280fd5b5080fd5b9050346103c857816003193601126103c85760035490516001600160a01b039091168152602090f35b346103c45760203660031901126103c45781359161041161116c565b82156104e557338452600660205281842054156104d757907fe6afb5ca7cc84435baf09da39fcb42fc0fb8bdfef6c3ff2ce9fce2c70a18f8219133855280602052818520906001820191610466868454610f44565b80845560025411156104c4575b50506104a18430337f000000000000000000000000000000000000000000000000000000000000000061121d565b54815193845260208401523392a2600160008051602061128b8339815191525580f35b01805460ff191660011790558580610473565b905163aba4733960e01b8152fd5b905163162908e360e11b8152fd5b8290346103c857816003193601126103c85761050d61116c565b33825260206006815281832054918215610705573384528482526001818520015492600554906001811015806106fb575b61054790611123565b600019918183018281116106e857908161056561057e959493610fbb565b90546001600160a01b03969160031b1c86163314611123565b8382019182116106d557908181869303610684575b50505050338652600684528583812055600554801561067157918697917f15f7469572dc44ee54c08cc4adf4e1031d7b6254626e8894015195a560039d0996979301906105df82610fbb565b909182549160031b1b191690556005553382528084528282208281558260018201558260028201558260038201550155600682526106208186205415611123565b8361064157519283523392a2600160008051602061128b8339815191525580f35b61066c84337f000000000000000000000000000000000000000000000000000000000000000061119c565b610364565b634e487b7160e01b875260318852602487fd5b6106a4926106946106c293610fbb565b90549060031b1c16928391610fbb565b90919060018060a01b038084549260031b9316831b921b1916179055565b8752600685528387205587828180610593565b634e487b7160e01b895260118a52602489fd5b634e487b7160e01b885260118952602488fd5b508181111561053e565b5163aba4733960e01b81528490fd5b9050346103c857816003193601126103c85760015490516001600160a01b039091168152602090f35b90346103c45760203660031901126103c45761077f8260c09461078893610762610e75565b61076a61102f565b506001600160a01b03168252602052206110c5565b91518092610e90565bf35b346103c4576020806003193601126108545782359267ffffffffffffffff91828511610850573660238601121561085057848201359283116108505760246005953660248660051b8301011161084c576107e385611061565b96885b8681106107fe578751806107fa8b82610edd565b0390f35b80821b83018401356001600160a01b0381169190829003610848576001918b5286865261082c898c206110c5565b610836828c6110b1565b52610841818b6110b1565b50016107e6565b8a80fd5b8780fd5b8580fd5b8380fd5b346103c45760203660031901126103c45760209260ff9082906001600160a01b03610881610e75565b168152848652209283015416918261089d575b50519015158152f35b600101546002541115915083610894565b9050346103c857816003193601126103c857905490516001600160a01b039091168152602090f35b90346103c45760203660031901126103c4577f171aabb8815c02fd00303450a77058600e3661eb75ce2e77972c0f080bc7099d903591610914611140565b6002548151908152836020820152a160025580f35b9050346103c857816003193601126103c857517f00000000000000000000000000000000000000000000000000000000000000006001600160a01b03168152602090f35b346103c457826003193601126103c457600154916001600160a01b039133838516036109d65750506001600160a01b031991821660015582543392811683178455167f8be0079c531659141344cd1fd0a4f28419497f9722a3daafe3b4186f6b6457e08380a380f35b60249250519063118cdaa760e01b82523390820152fd5b823461017c578060031936011261017c57610a06611140565b600180546001600160a01b03199081169091558154908116825581906001600160a01b03167f8be0079c531659141344cd1fd0a4f28419497f9722a3daafe3b4186f6b6457e08280a380f35b9050346103c857816003193601126103c8576020906002549051908152f35b8290346103c857816003193601126103c857600554926002549280815b868110610b385750610a9f90611061565b9381805b878110610ab7578551806107fa8982610edd565b610ac081610fbb565b905460039190911b1c6001600160a01b0316825260208590528582208086015460ff1680610b2a575b610af7575b50600101610aa3565b9390610b2382610b12610b0c60019592611008565b976110c5565b610b1c828c6110b1565b52896110b1565b5090610aee565b508360018201541015610ae9565b610b4181610fbb565b60018060a01b0391549060031b1c168352836020528483208660ff86830154169182610b8b575b5050610b77575b600101610a8e565b90610b83600191611008565b919050610b6f565b60010154101590508689610b68565b346103c45760203660031901126103c457610bb3610e75565b90610bbc611140565b6001600160a01b03918216928315610c1457507f88e2acb66d3a9b6036801f2677d62d614e8bc3ed5c1681debf903e8df68f8a41906003549281519084168152846020820152a16001600160a01b0319161760035580f35b905163e6c4247b60e01b8152fd5b823461017c578060031936011261017c579080519182906005549182855260208095018093600584527f036b6384b5eca791c62761152d0c79bb0604c104a5fb6f4eb0703f3154bb3db090845b818110610cc95750505081610c85910382610f99565b83519485948186019282875251809352850193925b828110610ca957505050500390f35b83516001600160a01b031685528695509381019392810192600101610c9a565b82546001600160a01b031684529288019260019283019201610c6f565b90346103c457816003193601126103c457610cff610e75565b60243590610d0b611140565b610d1361116c565b8115610e65576001600160a01b0390811680865260066020528486205490939015610e57578386528060205284862060018101805494858111600014610e515750845b858103908111610e3e579181602095937fd87c3348a79019696e9b472cb0efe979015741dd3a1c95f43cc26dd1ace903c09795935560038201610d9a868254610f44565b90556002820180546fffffffffffffffff000000000000000019164260401b67ffffffffffffffff60401b161790555460025411610e2e575b505081610dfa575b600354169451908152a3600160008051602061128b8339815191525580f35b610e298282600354167f000000000000000000000000000000000000000000000000000000000000000061119c565b610ddb565b01805460ff191690558780610dd3565b634e487b7160e01b895260118452602489fd5b94610d56565b845163aba4733960e01b8152fd5b835163162908e360e11b81528390fd5b600435906001600160a01b0382168203610e8b57565b600080fd5b60a08091600180831b03815116845260208101516020850152604081015167ffffffffffffffff809116604086015260608201511660608501526080810151608085015201511515910152565b602090602060408183019282815285518094520193019160005b828110610f05575050505090565b909192938260c082610f1a6001948951610e90565b01950193929101610ef7565b34610e8b576000366003190112610e8b576020600554604051908152f35b91908201809211610f5157565b634e487b7160e01b600052601160045260246000fd5b60c0810190811067ffffffffffffffff821117610f8357604052565b634e487b7160e01b600052604160045260246000fd5b90601f8019910116810190811067ffffffffffffffff821117610f8357604052565b600554811015610ff25760056000527f036b6384b5eca791c62761152d0c79bb0604c104a5fb6f4eb0703f3154bb3db00190600090565b634e487b7160e01b600052603260045260246000fd5b6000198114610f515760010190565b67ffffffffffffffff8111610f835760051b60200190565b6040519061103c82610f67565b8160a06000918281528260208201528260408201528260608201528260808201520152565b9061106b82611017565b6110786040519182610f99565b8281528092611089601f1991611017565b019060005b82811061109a57505050565b6020906110a561102f565b8282850101520161108e565b8051821015610ff25760209160051b010190565b906040516110d281610f67565b60a060ff60048395600180851b03815416855260018101546020860152600281015467ffffffffffffffff90818116604088015260401c166060860152600381015460808601520154161515910152565b1561112a57565b634e487b7160e01b600052600160045260246000fd5b6000546001600160a01b0316330361115457565b60405163118cdaa760e01b8152336004820152602490fd5b60008051602061128b833981519152600281541461118a5760029055565b604051633ee5aeb560e01b8152600490fd5b60405163a9059cbb60e01b60009081526001600160a01b039384166004526024949094529260209060448180855af16001600051148116156111fd575b83604052156111e757505050565b635274afe760e01b835216600482015260249150fd5b600181151661121357813b15153d1516166111d9565b833d6000823e3d90fd5b6040516323b872dd60e01b60009081526001600160a01b03938416600452938316602452604494909452909160209060648180855af1600160005114811615611274575b836040526000606052156111e757505050565b600181151661121357813b15153d15161661126156fe9b779b17422d0df92223018b32b4d1fa46e071723d6817e2486d003becc55f00a2646970667358221220dab85d29a4e7c88e81db3b9fde02f2802662a100800bae3d33a84b725befcec464736f6c63430008180033",
  "linkReferences": {},
  "deployedLinkReferences": {}
}