{
  "_format": "hh-sol-artifact-1",
  "contractName": "HTLCEscrow",
  "sourceName": "contracts/HTLCEscrow.sol",
  "abi": [
    {
      "inputs": [
        {
          "internalType": "contract IResolverRegistry",
          "name": "_resolverRegistry",
          "type": "address"
        },
        {
          "internalType": "uint256",
          "name": "_minSafetyDeposit",
          "type": "uint256"
        }
      ],
      "stateMutability": "nonpayable",
      "type": "constructor"
    },
    {
      "inputs": [],
      "name": "Expired",
      "type": "error"
    },
    {
      "inputs": [
        {
          "internalType": "uint256",
          "name": "allowance",
          "type": "uint256"
        },
        {
          "internalType": "uint256",
          "name": "required",
          "type": "uint256"
        }
      ],
      "name": "InsufficientAllowance",
      "type": "error"
    },
    {
      "inputs": [
        {
          "internalType": "uint256",
          "name": "balance",
          "type": "uint256"
        },
        {
          "internalType": "uint256",
          "name": "required",
          "type": "uint256"
        }
      ],
      "name": "InsufficientBalance",
      "type": "error"
    },
    {
      "inputs": [],
      "name": "InvalidAmount",
      "type": "error"
    },
    {
      "inputs": [],
      "name": "InvalidHashlock",
      "type": "error"
    },
    {
      "inputs": [],
      "name": "InvalidPreimage",
      "type": "error"
    },
    {
      "inputs": [],
      "name": "InvalidTimelock",
      "type": "error"
    },
    {
      "inputs": [],
      "name": "InvalidToken",
      "type": "error"
    },
    {
      "inputs": [],
      "name": "InvalidValue",
      "type": "error"
    },
    {
      "inputs": [],
      "name": "NativeTransferFailed",
      "type": "error"
    },
    {
      "inputs": [],
      "name": "NoPendingWithdrawal",
      "type": "error"
    },
    {
      "inputs": [],
      "name": "NotExpired",
      "type": "error"
    },
    {
      "inputs": [],
      "name": "OrderNotClaimable",
      "type": "error"
    },
    {
      "inputs": [],
      "name": "OrderNotFound",
      "type": "error"
    },
    {
      "inputs": [],
      "name": "OrderNotRefundable",
      "type": "error"
    },
    {
      "inputs": [],
      "name": "ReentrancyGuardReentrantCall",
      "type": "error"
    },
    {
      "inputs": [],
      "name": "ResolverNotAuthorised",
      "type": "error"
    },
    {
      "inputs": [
        {
          "internalType": "address",
          "name": "token",
          "type": "address"
        }
      ],
      "name": "SafeERC20FailedOperation",
      "type": "error"
    },
    {
      "inputs": [],
      "name": "SafetyDepositTooSmall",
      "type": "error"
    },
    {
      "anonymous": false,
      "inputs": [
        {
          "indexed": true,
          "internalType": "uint256",
          "name": "orderId",
          "type": "uint256"
        },
        {
          "indexed": true,
          "internalType": "address",
          "name": "claimer",
          "type": "address"
        },
        {
          "indexed": false,
          "internalType": "bytes32",
          "name": "preimage",
          "type": "bytes32"
        },
        {
          "indexed": false,
          "internalType": "uint256",
          "name": "amount",
          "type": "uint256"
        },
        {
          "indexed": false,
          "internalType": "uint256",
          "name": "safetyDeposit",
          "type": "uint256"
        }
      ],
      "name": "OrderClaimed",
      "type": "event"
    },
    {
      "anonymous": false,
      "inputs": [
        {
          "indexed": true,
          "internalType": "uint256",
          "name": "orderId",
          "type": "uint256"
        },
        {
          "indexed": true,
          "internalType": "address",
          "name": "sender",
          "type": "address"
        },
        {
          "indexed": true,
          "internalType": "address",
          "name": "beneficiary",
          "type": "address"
        },
        {
          "indexed": false,
          "internalType": "address",
          "name": "token",
          "type": "address"
        },
        {
          "indexed": false,
          "internalType": "uint256",
          "name": "amount",
          "type": "uint256"
        },
        {
          "indexed": false,
          "internalType": "uint256",
          "name": "safetyDeposit",
          "type": "uint256"
        },
        {
          "indexed": false,
          "internalType": "bytes32",
          "name": "hashlock",
          "type": "bytes32"
        },
        {
          "indexed": false,
          "internalType": "uint64",
          "name": "timelock",
          "type": "uint64"
        }
      ],
      "name": "OrderCreated",
      "type": "event"
    },
    {
      "anonymous": false,
      "inputs": [
        {
          "indexed": true,
          "internalType": "uint256",
          "name": "orderId",
          "type": "uint256"
        },
        {
          "indexed": true,
          "internalType": "address",
          "name": "caller",
          "type": "address"
        },
        {
          "indexed": false,
          "internalType": "uint256",
          "name": "amount",
          "type": "uint256"
        },
        {
          "indexed": false,
          "internalType": "uint256",
          "name": "safetyDeposit",
          "type": "uint256"
        }
      ],
      "name": "OrderRefunded",
      "type": "event"
    },
    {
      "anonymous": false,
      "inputs": [
        {
          "indexed": true,
          "internalType": "uint256",
          "name": "orderId",
          "type": "uint256"
        },
        {
          "indexed": true,
          "internalType": "address",
          "name": "recipient",
          "type": "address"
        },
        {
          "indexed": false,
          "internalType": "uint256",
          "name": "amount",
          "type": "uint256"
        }
      ],
      "name": "PayoutDeferred",
      "type": "event"
    },
    {
      "anonymous": false,
      "inputs": [
        {
          "indexed": true,
          "internalType": "address",
          "name": "recipient",
          "type": "address"
        },
        {
          "indexed": false,
          "internalType": "uint256",
          "name": "amount",
          "type": "uint256"
        }
      ],
      "name": "Withdrawn",
      "type": "event"
    },
    {
      "inputs": [],
      "name": "MAX_TIMELOCK",
      "outputs": [
        {
          "internalType": "uint64",
          "name": "",
          "type": "uint64"
        }
      ],
      "stateMutability": "view",
      "type": "function"
    },
    {
      "inputs": [],
      "name": "MIN_TIMELOCK",
      "outputs": [
        {
          "internalType": "uint64",
          "name": "",
          "type": "uint64"
        }
      ],
      "stateMutability": "view",
      "type": "function"
    },
    {
      "inputs": [],
      "name": "PAYOUT_GAS_STIPEND",
      "outputs": [
        {
          "internalType": "uint256",
          "name": "",
          "type": "uint256"
        }
      ],
      "stateMutability": "view",
      "type": "function"
    },
    {
      "inputs": [
        {
          "internalType": "uint256",
          "name": "orderId",
          "type": "uint256"
        },
        {
          "internalType": "bytes",
          "name": "preimage",
          "type": "bytes"
        }
      ],
      "name": "claimOrder",
      "outputs": [],
      "stateMutability": "nonpayable",
      "type": "function"
    },
    {
      "inputs": [
        {
          "internalType": "address",
          "name": "beneficiary",
          "type": "address"
        },
        {
          "internalType": "address",
          "name": "refundAddress",
          "type": "address"
        },
        {
          "internalType": "address",
          "name": "token",
          "type": "address"
        },
        {
          "internalType": "uint256",
          "name": "amount",
          "type": "uint256"
        },
        {
          "internalType": "uint256",
          "name": "safetyDeposit",
          "type": "uint256"
        },
        {
          "internalType": "bytes32",
          "name": "hashlock",
          "type": "bytes32"
        },
        {
          "internalType": "uint64",
          "name": "timelockSeconds",
          "type": "uint64"
        }
      ],
      "name": "createOrder",
      "outputs": [
        {
          "internalType": "uint256",
          "name": "orderId",
          "type": "uint256"
        }
      ],
      "stateMutability": "payable",
      "type": "function"
    },
    {
      "inputs": [
        {
          "internalType": "uint256",
          "name": "orderId",
          "type": "uint256"
        }
      ],
      "name": "getOrder",
      "outputs": [
        {
          "components": [
            {
              "internalType": "address",
              "name": "sender",
              "type": "address"
            },
            {
              "internalType": "address",
              "name": "beneficiary",
              "type": "address"
            },
            {
              "internalType": "address",
              "name": "refundAddress",
              "type": "address"
            },
            {
              "internalType": "address",
              "name": "token",
              "type": "address"
            },
            {
              "internalType": "uint256",
              "name": "amount",
              "type": "uint256"
            },
            {
              "internalType": "uint256",
              "name": "safetyDeposit",
              "type": "uint256"
            },
            {
              "internalType": "bytes32",
              "name": "hashlock",
              "type": "bytes32"
            },
            {
              "internalType": "uint64",
              "name": "timelock",
              "type": "uint64"
            },
            {
              "internalType": "uint64",
              "name": "createdAt",
              "type": "uint64"
            },
            {
              "internalType": "uint64",
              "name": "finalisedAt",
              "type": "uint64"
            },
            {
              "internalType": "enum IHTLCEscrow.OrderStatus",
              "name": "status",
              "type": "uint8"
            },
            {
              "internalType": "bytes32",
              "name": "preimageKeccak",
              "type": "bytes32"
            }
          ],
          "internalType": "struct IHTLCEscrow.Order",
          "name": "",
          "type": "tuple"
        }
      ],
      "stateMutability": "view",
      "type": "function"
    },
    {
      "inputs": [],
      "name": "minSafetyDeposit",
      "outputs": [
        {
          "internalType": "uint256",
          "name": "",
          "type": "uint256"
        }
      ],
      "stateMutability": "view",
      "type": "function"
    },
    {
      "inputs": [],
      "name": "nextOrderId",
      "outputs": [
        {
          "internalType": "uint256",
          "name": "",
          "type": "uint256"
        }
      ],
      "stateMutability": "view",
      "type": "function"
    },
    {
      "inputs": [
        {
          "internalType": "address",
          "name": "account",
          "type": "address"
        }
      ],
      "name": "pendingWithdrawals",
      "outputs": [
        {
          "internalType": "uint256",
          "name": "",
          "type": "uint256"
        }
      ],
      "stateMutability": "view",
      "type": "function"
    },
    {
      "inputs": [
        {
          "internalType": "uint256",
          "name": "orderId",
          "type": "uint256"
        }
      ],
      "name": "refundOrder",
      "outputs": [],
      "stateMutability": "nonpayable",
      "type": "function"
    },
    {
      "inputs": [],
      "name": "resolverRegistry",
      "outputs": [
        {
          "internalType": "contract IResolverRegistry",
          "name": "",
          "type": "address"
        }
      ],
      "stateMutability": "view",
      "type": "function"
    },
    {
      "inputs": [],
      "name": "withdraw",
      "outputs": [
        {
          "internalType": "uint256",
          "name": "amount",
          "type": "uint256"
        }
      ],
      "stateMutability": "nonpayable",
      "type": "function"
    },
    {
      "stateMutability": "payable",
      "type": "receive"
    }
  ],
  "bytecode": "0x60c0346100b357601f6113cb38819003918201601f19168301916001600160401b038311848410176100b85780849260409485528339810103126100b3578051906001600160a01b03821682036100b357602001519060017f9b779b17422d0df92223018b32b4d1fa46e071723d6817e2486d003becc55f0055600160005560805260a0526040516112fc90816100cf82396080518181816103360152610b23015260a0518181816101f90152610afb0152f35b600080fd5b634e487b7160e01b600052604160045260246000fdfe6080604052600436101561001e575b361561001957600080fd5b610c9a565b60003560e01c806303b390a7146100de57806320b18c7f146100d95780632a58b330146100d45780633ccfd60b146100cf57806354c594b6146100ca57806394f1825b146100c5578063c018c457146100c0578063d09ef241146100bb578063e5a8c912146100b6578063f3f1baac146100b1578063f3f43703146100ac5763fb0c75490361000e57610781565b610747565b61072a565b6106c8565b610601565b610383565b610365565b610320565b61023a565b61021c565b6101e1565b610165565b634e487b7160e01b600052604160045260246000fd5b61018081019081106001600160401b0382111761011557604052565b6100e3565b90601f801991011681019081106001600160401b0382111761011557604052565b60405190610148826100f9565b565b6001600160401b03811161011557601f01601f191660200190565b346101dc5760403660031901126101dc576024356001600160401b0381116101dc57366023820112156101dc5780600401356101a08161014a565b906101ae604051928361011a565b80825236602482850101116101dc5760208160009260246101da9601838601378301015260043561079e565b005b600080fd5b346101dc5760003660031901126101dc5760206040517f00000000000000000000000000000000000000000000000000000000000000008152f35b346101dc5760003660031901126101dc576020600054604051908152f35b346101dc5760008060031936011261031d576102546110b5565b3360009081526002602052604090205490811561030b5733600090815260026020526040902081905580808084335af161028c610993565b50156102f0576040518181526102ec919033907f7084f5476618d8e60b11ef0d7d3f06914655adb8793e28ff7f018d4c76d505d590602090a26102dc60016000805160206112a783398151915255565b6040519081529081906020820190565b0390f35b336000526002602052604051633d2cec6f60e21b8152600490fd5b604051639121b84f60e01b8152600490fd5b80fd5b346101dc5760003660031901126101dc576040517f00000000000000000000000000000000000000000000000000000000000000006001600160a01b03168152602090f35b346101dc5760003660031901126101dc576020604051620151808152f35b346101dc5760203660031901126101dc57600480356103a06110b5565b6103b4816000526001602052604060002090565b9160078301805460ff8160c01c166103cb81610508565b6104e0576001600160401b038091164211156104cf57815460ff60c01b1916600160c11b1782557f9e02eae1abb591a452a88f0d4da3062c2b8a8ae526e02e25aff7c641cc14ef65926104a592909161044a91905b815467ffffffffffffffff60801b1916429190911660801b67ffffffffffffffff60801b16179055565b8401549361048684866005840154936104806002610471600384015460018060a01b031690565b9201546001600160a01b031690565b906110e5565b806104bf575b6040805195865260208601919091523394918291820190565b0390a36101da60016000805160206112a783398151915255565b6104ca84823361122b565b61048c565b60405163d0404f8560e01b81528390fd5b8280860154156104f957604051637d1f5efd60e01b8152fd5b60405163d36d896560e01b8152fd5b6003111561051257565b634e487b7160e01b600052602160045260246000fd5b9060038210156105125752565b81516001600160a01b03168152610180810192916020818101516001600160a01b0316908301526040818101516001600160a01b0316908301526060818101516001600160a01b0316908301526080810151608083015260a081015160a083015260c081015160c08301526105ba60e082015160e08401906001600160401b03169052565b610100818101516001600160401b031690830152610120818101516001600160401b0316908301526105f56101408083015190840190610528565b61016080910151910152565b346101dc5760203660031901126101dc5760405161061e816100f9565b6101606000918281528260208201528260408201528260608201528260808201528260a08201528260c08201528260e082015282610100820152826101208201528261014082015201526106866106816004356000526001602052604060002090565b6109cf565b6080810151156106a0576102ec9060405191829182610535565b60405163d36d896560e01b8152600490fd5b600435906001600160a01b03821682036101dc57565b60e03660031901126101dc576106dc6106b2565b602435906001600160a01b0380831683036101dc5760443590811681036101dc5760c435906001600160401b03821682036101dc576102ec936102dc9360a435926084359260643592610aa5565b346101dc5760003660031901126101dc5760206040516175308152f35b346101dc5760203660031901126101dc576001600160a01b036107686106b2565b1660005260026020526020604060002054604051908152f35b346101dc5760003660031901126101dc57602060405161012c8152f35b6107a66110b5565b6107ba816000526001602052604060002090565b6007810190815460ff8160c01c166107d181610508565b61091c576001600160401b03809116421161090a5760208551036108e2576020600060405180610801818a610938565b039060025afa156109055760005160068301548091141590816108f4575b506108e257825460ff60c01b1916600160c01b1783557f9091f9eab3186c0983f03b7fb35e7be438f31bd61730bbd61e7e54ad50f6c1b59261086091610420565b8351602085012060088201556108a260048201549461089885876005860154956104806001610471600384015460018060a01b031690565b826108d257611182565b604080519182526020820195909552938401523392606090a361014860016000805160206112a783398151915255565b6108dd85843361122b565b611182565b604051630cb4548160e11b8152600490fd5b90508551602087012014153861081f565b610963565b604051630407b05b60e31b8152600490fd5b6004820154156106a057604051630a5ae84160e11b8152600490fd5b9081519160005b838110610950575050016000815290565b806020809284010151818501520161093f565b6040513d6000823e3d90fd5b90600381101561051257815460ff60c01b191660c09190911b60ff60c01b16179055565b3d156109be573d906109a48261014a565b916109b2604051938461011a565b82523d6000602084013e565b606090565b60038210156105125752565b9060086109da61013b565b83546001600160a01b031681529260018101546001600160a01b0316602085015260028101546001600160a01b0316604085015260038101546001600160a01b0316606085015260048101546080850152600581015460a0850152600681015460c085015260078101546001600160401b0380821660e0870152610a9b9160ff91610a8d906001600160401b03604084901c8216166101008a01528260801c166101208901906001600160401b03169052565b60c01c1661014086016109c3565b0154610160830152565b949193909293610ab36110b5565b8415610e9a576001600160a01b038681169690949087158015610eac575b610e9a578415610e88576001600160401b0395868a1661012c8110908115610e7b575b50610e69577f00000000000000000000000000000000000000000000000000000000000000008510610e5757807f00000000000000000000000000000000000000000000000000000000000000001680610ddb575b50831680610cac5750610b5c8488610ef3565b3403610c9a575b60005498899660018801600055421690610b7d9082610f05565b92610b8661013b565b338152926001600160a01b031660208401526001600160a01b031660408301526001600160a01b03841660608301526080820188905260a0820185905260c082018690526001600160401b03831660e08301526001600160401b0316610100820152610120810160009052610140810160009052610160810160009052610c17866000526001602052604060002090565b90610c2191610f20565b604080516001600160a01b0393909316835260208301969096529481019190915260608101919091526001600160401b03909216608083015233917f672f124381ce10ec7be97b79c6f497471284341be29e92ea567e7c5e2daebf519060a090a49061014860016000805160206112a783398151915255565b604051632a9ffab760e21b8152600490fd5b843403610c9a57833b15610dc957604051636eb1769f60e11b81523360048201523060248201526020908181604481865afa90811561090557600091610dac575b50898110610d8b57506040516370a0823160e01b81523360048201528181602481865afa91821561090557600092610d5e575b5050888110610d3d575087610d389130903390611196565b610b63565b60405163cf47918160e01b8152600481019190915260248101899052604490fd5b610d7d9250803d10610d84575b610d75818361011a565b810190610ece565b3880610d20565b503d610d6b565b60405163054365bb60e31b81526004810191909152602481018a9052604490fd5b610dc39150823d8411610d8457610d75818361011a565b38610ced565b60405163c1ab6dc160e01b8152600490fd5b604051639f8a13d760e01b815233600482015290602090829060249082905afa90811561090557600091610e28575b5015610e165738610b49565b6040516369875df760e11b8152600490fd5b610e4a915060203d602011610e50575b610e42818361011a565b810190610eb6565b38610e0a565b503d610e38565b604051637193b01560e01b8152600490fd5b604051637c68874160e11b8152600490fd5b6201518091501138610af4565b604051632e0755ab60e01b8152600490fd5b60405163162908e360e11b8152600490fd5b5085821615610ad1565b908160209103126101dc575180151581036101dc5790565b908160209103126101dc575190565b634e487b7160e01b600052601160045260246000fd5b91908201809211610f0057565b610edd565b9190916001600160401b0380809416911601918211610f0057565b815181546001600160a01b0319166001600160a01b03909116178155906008906101609060208101516001850180546001600160a01b0319166001600160a01b0390921691909117905560408101516002850180546001600160a01b0319166001600160a01b0390921691909117905560608101516003850180546001600160a01b0319166001600160a01b039092169190911790556080810151600485015560a0810151600585015560c081015160068501556110ae6007850161100f610ff260e08501516001600160401b031690565b825467ffffffffffffffff19166001600160401b03909116178255565b6110596110276101008501516001600160401b031690565b82546fffffffffffffffff0000000000000000191660409190911b6fffffffffffffffff000000000000000016178255565b6110996110716101208501516001600160401b031690565b825467ffffffffffffffff60801b191660809190911b67ffffffffffffffff60801b16178255565b610140830151906110a982610508565b61096f565b0151910155565b6000805160206112a783398151915260028154146110d35760029055565b604051633ee5aeb560e01b8152600490fd5b909291906001600160a01b0390811690816111055750506101489261122b565b9092506020916000916040519563a9059cbb60e01b84521660045260245260448180855af1600160005114811615611162575b8260405215611145575050565b635274afe760e01b82526001600160a01b03166004820152602490fd5b600181151661117857813b15153d151616611138565b823d6000823e3d90fd5b805115611190576020015190565b50600090565b6040516323b872dd60e01b60009081526001600160a01b03938416600452938316602452604494909452909160209060648180855af160016000511481161561120b575b836040526000606052156111ed57505050565b635274afe760e01b8352166001600160a01b03166004820152602490fd5b600181151661122157813b15153d1516166111da565b833d6000823e3d90fd5b6001600160a01b031691906000808080808588617530f161124a610993565b5015611257575b50505050565b808460409252600260205220805491808301809311610f00577f54ce20b025f500d61d580ad59a7050cc533f69121275cfe095ef32ec9976df909260209255604051908152a33880808061125156fe9b779b17422d0df92223018b32b4d1fa46e071723d6817e2486d003becc55f00a26469706673582212209778aa8b49e945be6bdbacc587bac7f8af6b8ea87ecace91a5c7a7addf64f44964736f6c63430008180033",
  "linkReferences": {},
  "deployedLinkReferences": {}
}